:1006BF00000000000000000000000000000000002B
:0106CF00002A
:02067B008F19D5
:10067D00781A7C007D007BFF7A0679BF7E007F03B0
:10068D001200F6751AA585191B7B007A00791A7D63
:04069D00030205CB84
:1002C10078097C007D007BFF7A0679C27E007F047D
:1002D1001200F6780D7C007D007BFF7A0679C67EE0
:1002E100007F0A1200F6E4F517F5187F807E25FDE0
:1002F100FC12064D7F8212067BE56460FCE4F51773
:10030100F518E5682404FFE433FEC3E5189FEE64A5
:1003110080F8748098500E74652518F8E62517F555
:1003210017051880DD74652518F8E66517705AE51C
:1003310069F511E56AF512E56BF509E56CF50AE574
:100341006DF50BE56EF50CAE09AF0AE4FCFD781016
:10035100120282A804A905AA06AB07EB450CF51009
:10036100EA450BF50FE9F50EE8F50DE56FF513E537
:1003710070F514E571F515E572F5167B007A0079D3
:0F03810069751D457D0A12055FE4F5640202FAF5
:10061E000163000153000F540000000000000000B1
:07062E0000000000000000C5
:0300130002000DDB
:01000D0032C0
:03002300020432A2
:10043200C0E0C0F0C083C082C0D075D000C000C090
:0D04420001C002C003C004C005C006C00711
:10044F00750800309905C29975740030985BAF53E9
:10045F00055374542FF8A699C298E554645A600353
:10046F00755300E553B40209E555645A600375539B
:10047F0000E553D394034031E5572405FFE433FEE1
:10048F00E553B50724E4B50620E55624BB7017E500
:10049F0064701378657C00FDFB7A007954FE7F0F42
:0904AF001200F67564017553009A
:1004B800D007D006D005D004D003D002D001D00098
:0B04C800D0D0D082D083D0F0D0E03242
:1006A1000000000000000000000000000000000049
:0E06B10000000000000000000000000000003B
:100635000174000164000F65000000000000000067
:0706450000000000000000AE
:10064D008F1C8E1B8D1A8C19759850438920AB1CED
:10065D00AA1BA91AA819E47F807E70FDFC1201F077
:0E066D00EFF404F58DF58B43884043A89022EE
:0A000300E57470FC8F9975740122FA
:0605CB008B3C8A3D893ED5
:1005D100E4F53FE53FC39D5043ED14FFE53FC39F65
:1005E1005022AB3CAA3DA93E853F82758300120192
:1005F1001CFFED75830024FFF582E58334FFF5834D
:10060100EF120149AB3CAA3DA93EAF3F053F8F82A6
:0C06110075830012011CFF12000380B76B
:01061D0022BA
:08055F008B198A1A891B8D1CFF
:10056700781E7C007D007BFF7A0679A17E007F1EC6
:100577001200F6E4FF0F241EF8765A0F741E2401AA
:10058700F8765A0F741E2402F8A61D0F741E240352
:10059700F8A61CE4FEEEC3951C501BAB19AA1AA9BA
:1005A7001B8E8275830012011CFDAC070F741E2C75
:1005B700F8A6050E80DF7B007A00791EE51C24056E
:0405C700FD0205CB61
:080390008B408A4189428D4334
:10039800E4F552FDE54375F002A42405FFE435F0C9
:1003A800FE7B007A007945120295AF5205527445DA
:1003B8002FF8765AAF52055274452FF8765AAF5235
:1003C800055274452FF8A644E54325E0FFAE5205D3
:1003D8005274452EF8A607E4FDEDC39543503BAB98
:1003E80040AA41A94275F002EDA4F58285F0831276
:1003F800017CE5F0FFAE52055274452EF8A607754C
:10040800F002EDA4F58285F08312017CFFAE52055F
:100418005274452EF8A6070D80BF7B007A007945F7
:0A042800E54325E02405FD0205CBA5
:030000000204D324
:0C04D300787FE4F6D8FD75817402051AEC
:10002600E709F608DFFA8046E709F208DFFA803EBC
:1000360088828C83E709F0A3DFFA8032E309F608A9
:10004600DFFA8078E309F208DFFA807088828C8311
:10005600E309F0A3DFFA806489828A83E0A3F608C5
:10006600DFFA805889828A83E0A3F208DFFA804C9F
:1000760080D280FA80C680D4806980F28033801076
:1000860080A680EA809A80A880DA80E280CA8033DF
:1000960089828A83ECFAE493A3C8C582C8CCC58357
:1000A600CCF0A3C8C582C8CCC583CCDFE9DEE78027
:1000B6000D89828A83E493A3F608DFF9ECFAA9F0A6
:1000C600EDFB2289828A83ECFAE0A3C8C582C8CCFC
:1000D600C583CCF0A3C8C582C8CCC583CCDFEADE15
:1000E600E880DB89828A83E493A3F208DFF980CC77
:1000F60088F0EF60010E4E60C388F0ED2402B40470
:100106000050B9F582EB2402B4040050AF23234516
:06011600822390007673C5
:10011C00BB010CE58229F582E5833AF583E0225098
:10012C0006E92582F8E622BBFE06E92582F8E222E2
:0D013C00E58229F582E5833AF583E49322FC
:10014900BB010FF8E58229F582E5833AF583E028BA
:10015900F0225009C58229F8E58226F622BBFE095C
:10016900C58229F8E22582F222F8EA2583F583E996
:03017900932822A6
:10017C00BB0110E58229F582E5833AF583E0F5F0C1
:10018C00A3E0225009E92582F886F008E622BBFE9E
:10019C000AE92582F8E2F5F008E222E5832AF583E4
:0801AC00E993F5F0A3E99322A9
:1001B40075F008758200EF2FFFEE33FECD33CDCC02
:1001C40033CCC58233C5829BED9AEC99E582984085
:1001D4000CF582EE9BFEED9AFDEC99FC0FD5F0D662
:1001E400E4CEFBE4CDFAE4CCF9A88222B800C1B98C
:1001F4000059BA002DEC8BF084CFCECDFCE5F0CBCA
:10020400F97818EF2FFFEE33FEED33FDEC33FCEB02
:1002140033FB10D703994004EB99FB0FD8E5E4F9BD
:10022400FA227818EF2FFFEE33FEED33FDEC33FCAA
:10023400C933C910D7059BE99A4007EC9BFCE99A9E
:10024400F90FD8E0E4C9FAE4CCFB2275F010EF2FE3
:10025400FFEE33FEED33FDCC33CCC833C810D707E3
:100264009BEC9AE899400AED9BFDEC9AFCE899F81E
:0E0274000FD5F0DAE4CDFBE4CCFAE4C8F922B1
:10028200E8600FEFC333FFEE33FEED33FDEC33FCDA
:03029200D8F1227E
:10029500EF4E6012EF60010EEDBB010B89828A8380
:1002A500F0A3DFFCDEFA2289F05007F709DFFCA98D
:0C02B500F022BBFEFCF309DFFCA9F022E4
:1004DF000202C1E493A3F8E493A34003F68001F270
:1004EF0008DFF48029E493A3F85407240CC8C3331E
:1004FF00C4540F4420C8834004F456800146F6DFED
:10050F00E4800B010204081020408090061EE47E58
:10051F00019360BCA3FF543F30E509541FFEE493E1
:10052F00A360010ECF54C025E060A840B8E493A3A8
:10053F00FAE493A3F8E493A3C8C582C8CAC583CAD3
:10054F00F0A3C8C582C8CAC583CADFE9DEE780BE8B
:01064C0000AD
:00000001FF
