:0F000300000000000000000000000000000000EE
:0607CD00015900015A0071
:1006DE008F2A8E298D288C27759850438920AB2A16
:1006EE00AA29A928A827E47F807E70FDFC120202A9
:0E06FE00EFF404F58DF58B43884043A890225D
:0A07F000E55970FC8F99755901223C
:060608008B3B8A3C893D9A
:10060E00E4F53EE53EC39D5043ED14FFE53EC39F2A
:10061E005022AB3BAA3CA93D853E82758300120158
:10062E001CFFED75830024FFF582E58334FFF5830F
:10063E00EF120149AB3BAA3CA93DAF3E053E8F826E
:0C064E0075830012011CFF1207F080B73A
:01065A00227D
:08059C008B278A2889298D2A8A
:1005A400782C7C007D007BFF7A0079037E007F0F2E
:1005B4001200F6E4FF0F242CF8765A0F742C240151
:1005C400F8765A0F742C2402F8A62B0F742C2403EB
:1005D400F8A62AE4FEEEC3952A501BAB27AA28A945
:1005E400298E8275830012011CFDAC070F742C2C1C
:1005F400F8A6050E80DF7B007A00792CE52A240515
:04060400FD020608E5
:0803EE008B3F8A4089418D42DA
:1003F600E4F553FDE54275F002A42405FFE435F06B
:10040600FE7B007A0079441202A7AF530553744469
:100416002FF8765AAF53055374442FF8765AAF53D4
:10042600055374442FF8A643E54225E0FFAE530575
:100436005374442EF8A607E4FDEDC39542503BAB3A
:100446003FAA40A94175F002EDA4F58285F083121A
:10045600018EE5F0FFAE53055374442EF8A60775DA
:10046600F002EDA4F58285F08312018EFFAE5305EE
:100476005374442EF8A6070D80BF7B007A0079449A
:0A048600E54225E02405FD0206080A
:0B07D300015800015400035500000015
:03001300020012D6
:0100120032BB
:0300230002065B77
:0D065B00C0E0C0D075D000C000C006C007D0
:10066800E4309904C299F559309822AE540554746F
:10067800552EF8A699C298E555B4A503D38001C3B1
:0D0688004003755400E554B403037554009D
:0B069500D007D006D000D0D0D0E0325B
:0307FA008F2D221E
:10073300D2B77F011207FAD2B61207FA20B7021F07
:1007430022C2B77F011207FA30B7021F22C2B67F57
:05075300011207FA226B
:1007DF00C2B7C2B67F011207FAD2B61207FAD2B762
:0107EF0022E7
:1007B800BF0104D2B78002C2B7D2B67F011207FACE
:0507C800C2B60207FAB1
:10077D00E4FFD2B7D2B630B7040FBF02F930B705D8
:0F078D00C2B67F00227F011207FAC2B61207FA26
:01079C00223A
:02075800AE07EA
:10075A00C2B6E4FDEE30E704D2B78002C2B7D2B621
:10076A007F011207FAC2B61207FAEE25E0FE0DBDA6
:02077A0008E293
:01077C00225A
:10070C00E4FED2B77F011207FAFDEE25E0FED2B669
:10071C0030B7034306017F011207FAC2B61207FA7B
:06072C000DBD08E6AF065A
:0107320022A4
:1006A000AE07AC03AB05120733EF70028025AF062F
:1006B00012075812077DEF70028018AF0312075817
:1006C00012077DEF7002800BAF0412075812077DEE
:0E06D000EF70051207DFFF221207DF7F012205
:10051C008D288B298A2A892BAC07120733EF70029E
:10052C00802EAF0412075812077DEF70028021AFA6
:10053C002812075812077DEF70028014120733EF50
:10054C007002800CEC04FF12075812077DEF700547
:10055C001207DFFF22E52C14601E12070CAB2905D5
:10056C002BE52BAA2A7002052A14F9EF12017CE460
:10057C00FF1207B8152C80DD12070CAB29AA2AA98B
:10058C002BEF12017C7F011207B81207DF7F0122CB
:10079D00000000000000000000000000000000004C
:0B07AD00000000000000000000000041
:0B001600EF1FAC0670011E4C70F622BC
:1002D30078087C007D007BFF7A07799D7E007F0D87
:1002E3001200F6E4F518F517F516F51578197C00E4
:1002F300FD7BFF7A0779AAFE7F041200F6781D7C46
:10030300007D007BFF7A0779AE7E007F0A1200F63C
:100313007F807E257D007C001206DED2B6D2B77BBD
:10032300007A007908752C0A7D047FB612051CEF4C
:10033300605AE508F521E509F522E50AF519E50B0B
:10034300F51AE50CF51BE50DF51CAE19AF1AE4FC27
:10035300FD7810120294A804A905AA06AB07EB4581
:100363001CF520EA451BF51FE9F51EE8F51DE50E12
:10037300F523E50FF524E510F525E511F5267B00BA
:100383007A007908752B457D0A12059C7B007A005B
:100393007908752C04E4FD7FB612051CEF6042E575
:1003A30008F519E509F51AE50AF51BE50BF51CAE89
:1003B30019AF1AE4FCFD7810120294A804A905AA47
:1003C30006AB07EB451CF518EA451BF517E9F516CF
:1003D300E8F5157B007A007908752B157D03120566
:0B03E3009C7F887E131200160203228C
:0300000002049067
:0C049000787FE4F6D8FD75815A0204D78D
:10002600E709F608DFFA8046E709F208DFFA803EBC
:1000360088828C83E709F0A3DFFA8032E309F608A9
:10004600DFFA8078E309F208DFFA807088828C8311
:10005600E309F0A3DFFA806489828A83E0A3F608C5
:10006600DFFA805889828A83E0A3F208DFFA804C9F
:1000760080D280FA80C680D4806980F28033801076
:1000860080A680EA809A80A880DA80E280CA8033DF
:1000960089828A83ECFAE493A3C8C582C8CCC58357
:1000A600CCF0A3C8C582C8CCC583CCDFE9DEE78027
:1000B6000D89828A83E493A3F608DFF9ECFAA9F0A6
:1000C600EDFB2289828A83ECFAE0A3C8C582C8CCFC
:1000D600C583CCF0A3C8C582C8CCC583CCDFEADE15
:1000E600E880DB89828A83E493A3F208DFF980CC77
:1000F60088F0EF60010E4E60C388F0ED2402B40470
:100106000050B9F582EB2402B4040050AF23234516
:06011600822390007673C5
:10011C00BB010CE58229F582E5833AF583E0225098
:10012C0006E92582F8E622BBFE06E92582F8E222E2
:0D013C00E58229F582E5833AF583E49322FC
:10014900BB010FF8E58229F582E5833AF583E028BA
:10015900F0225009C58229F8E58226F622BBFE095C
:10016900C58229F8E22582F222F8EA2583F583E996
:03017900932822A6
:10017C00BB010689828A83F0225002F722BBFE0162
:02018C00F3225C
:10018E00BB0110E58229F582E5833AF583E0F5F0AF
:10019E00A3E0225009E92582F886F008E622BBFE8C
:1001AE000AE92582F8E2F5F008E222E5832AF583D2
:0801BE00E993F5F0A3E9932297
:1001C60075F008758200EF2FFFEE33FECD33CDCCF0
:1001D60033CCC58233C5829BED9AEC99E582984073
:1001E6000CF582EE9BFEED9AFDEC99FC0FD5F0D650
:1001F600E4CEFBE4CDFAE4CCF9A88222B800C1B97A
:100206000059BA002DEC8BF084CFCECDFCE5F0CBB7
:10021600F97818EF2FFFEE33FEED33FDEC33FCEBF0
:1002260033FB10D703994004EB99FB0FD8E5E4F9AB
:10023600FA227818EF2FFFEE33FEED33FDEC33FC98
:10024600C933C910D7059BE99A4007EC9BFCE99A8C
:10025600F90FD8E0E4C9FAE4CCFB2275F010EF2FD1
:10026600FFEE33FEED33FDCC33CCC833C810D707D1
:100276009BEC9AE899400AED9BFDEC9AFCE899F80C
:0E0286000FD5F0DAE4CDFBE4CCFAE4C8F9229F
:10029400E8600FEFC333FFEE33FEED33FDEC33FCC8
:0302A400D8F1226C
:1002A700EF4E6012EF60010EEDBB010B89828A836E
:1002B700F0A3DFFCDEFA2289F05007F709DFFCA97B
:0C02C700F022BBFEFCF309DFFCA9F022D2
:10049C000202D3E493A3F8E493A34003F68001F2A1
:1004AC0008DFF48029E493A3F85407240CC8C33361
:1004BC00C4540F4420C8834004F456800146F6DF30
:1004CC00E4800B01020408102040809007CDE47EEC
:1004DC00019360BCA3FF543F30E509541FFEE49325
:1004EC00A360010ECF54C025E060A840B8E493A3EC
:1004FC00FAE493A3F8E493A3C8C582C8CAC583CA17
:10050C00F0A3C8C582C8CAC583CADFE9DEE780BECE
:0107DE00001A
:00000001FF
